:020000040800F2
:1000000000500020710B0008F10A0008F70A0008F0
:10001000FD0A0008030B0008090B0008000000009F
:100020000000000000000000000000000F0B0008AE
:100030001B0B000800000000270B0008330B000812
:10004000B90B0008B90B0008B90B0008B90B000880
:10005000B90B0008B90B0008B90B0008B90B000870
:10006000B90B0008B90B0008B90B0008B90B000860
:10007000B90B0008B90B0008B90B0008B90B000850
:10008000B90B0008B90B0008B90B0008B90B000840
:10009000B90B0008B90B0008B90B0008B90B000830
:1000A000B90B0008B90B0008B90B0008B90B000820
:1000B000410B0008B90B0008B90B0008B90B000888
:1000C000B90B0008B90B0008B90B0008B90B000800
:1000D000B90B0008B90B0008B90B0008B90B0008F0
:1000E000550B0008B90B0008B90B00080000000010
:1000F0000000000000000000000000000000000000
:0C01000000000000000000005FF808F1A3
:10010C0010B5054C237833B9044B13B10448AFF345
:10011C0000800123237010BD24000020000000008B
:10012C000C2E000808B5034B1BB103490348AFF371
:10013C00008008BD00000000280000200C2E0008E4
:10014C0080B483B000AF78600E497A681346DB0048
:10015C009B1A9B000B4414331B68012B0BD10949D0
:10016C007A681346DB009B1A9B000B441433002265
:10017C001A60012300E0002318460C37BD4680BCF2
:10018C00704700BF4000002080B483B000AF78609F
:10019C0007497A681346DB009B1A9B000B44143307
:1001AC0000221A6000BF0C37BD4680BC704700BFF0
:1001BC004000002080B582B000AF00237B60E7E0F8
:1001CC0078497A681346DB009B1A9B000B44043376
:1001DC00196874487A681346DB009B1A9B00034429
:1001EC00083319606F497A681346DB009B1A9B0031
:1001FC000B4419686B487A681346DB009B1A9B000A
:10020C00034404331960684A7B6852F82320674919
:10021C007B6831F813301946104600F0E1FF0346B5
:10022C00184660497A681346DB009B1A9B000B4406
:10023C0018605C497A681346DB009B1A9B000B44E0
:10024C000433196857487A681346DB009B1A9B00E5
:10025C0003441B68994240F0988052497A681346CF
:10026C00DB009B1A9B000B44043319684D487A68D9
:10027C001346DB009B1A9B00034408331B6899420E
:10028C0040F0838047497A681346DB009B1A9B0039
:10029C000B440833196843487A681346DB009B1AF1
:1002AC009B0003440C331B68994231D03D497A685A
:1002BC001346DB009B1A9B000B4408331968394822
:1002CC007A681346DB009B1A9B0003440C331960BD
:1002DC0034497A681346DB009B1A9B000B440C33A1
:1002EC001B68002B51D12F497A681346DB009B1AEF
:1002FC009B000B44103332221A602A497A68134649
:10030C00DB009B1A9B000B44143301221A603CE067
:10031C0024497A681346DB009B1A9B000B4410336C
:10032C001B68591E1F487A681346DB009B1A9B00FA
:10033C000344103319601B497A681346DB009B1A7F
:10034C009B000B4410331B68002B1ED115497A6897
:10035C001346DB009B1A9B000B44103332221A60AD
:10036C0010497A681346DB009B1A9B000B440C3334
:10037C001B68002B09D10B497A681346DB009B1ACA
:10038C009B000B44143301221A607B6801337B60A1
:10039C007B68032B7FF714AF00BF00BF0837BD4647
:1003AC0080BD00BF40000020000000201000002095
:1003BC0080B586B002AF0346FB71FB7923F00F03C7
:1003CC00FB73FB791B01BB73FB7B43F00C03DBB2B0
:1003DC003B72FB7B43F00803DBB27B72BB7B43F0CD
:1003EC000C03DBB2BB72BB7B43F00803DBB2FB72CA
:1003FC0007F108026423009304234221034801F00F
:10040C009DF800BF1037BD4680BD00BFB000002076
:10041C0080B586B002AF0346FB71FB7923F00F0366
:10042C00FB73FB791B01BB73FB7B43F00D03DBB24E
:10043C003B72FB7B43F00903DBB27B72BB7B43F06B
:10044C000D03DBB2BB72BB7B43F00903DBB2FB7267
:10045C0007F108026423009304234221034801F0AE
:10046C006DF800BF1037BD4680BD00BFB000002046
:10047C0080B500AF3320FFF79BFF3220FFF798FFCA
:10048C00322000F0F7FB2820FFF792FF322000F01B
:10049C00F1FB0120FFF78CFF322000F0EBFB062074
:1004AC00FFF786FF322000F0E5FB0C20FFF780FF02
:1004BC00322000F0DFFB0220FFF77AFF322000F041
:1004CC00D9FB8020FFF774FF00BF80BD80B582B0E0
:1004DC0000AF786006E07B685A1C7A601B7818467F
:1004EC00FFF796FF7B681B78002BF4D100BF00BF91
:1004FC000837BD4680BD80B584B000AF78603960E8
:10050C007B68012B08D17B68DAB23B68DBB2134401
:10051C00DBB27F33FB7308E03B68DBB24033DBB20A
:10052C005BB263F07F035BB2FB73FB7B1846FFF798
:10053C003FFF00BF1037BD4680BD000080B500AF47
:10054C0000F036FB00F036F800F018F900F0ECF88B
:10055C0000F09EF800F06EF8124801F0A5FFFFF7CE
:10056C0087FF0020FFF7ECFD0346002B0AD0082183
:10057C000D4800F064FE20210B4800F060FE0020C6
:10058C00FFF702FE00210120FFF7B5FF0748FFF738
:10059C009DFF00210220FFF7AEFF0548FFF796FFF5
:1005AC00DFE700BF04010020000C0140242E0008EE
:1005BC00342E000880B590B000AF07F11803282244
:1005CC000021184602F014FC3B1D00221A605A60F0
:1005DC009A60DA601A610223BB610123BB621023AB
:1005EC00FB6202237B630023BB630023FB6307F1E5
:1005FC001803184601F0FAFA0346002B01D000F05C
:10060C0087F90F237B600223BB600023FB604FF450
:10061C0080633B6100237B613B1D0021184601F088
:10062C0065FD0346002B01D000F072F900BF403786
:10063C00BD4680BD80B500AF124B134A1A60114BFA
:10064C00124A5A600F4B00229A600E4B0022DA605D
:10065C000C4B4FF480421A610A4B00225A61094B31
:10066C0000229A61074B0022DA61064B00221A62C3
:10067C00044800F01FFE0346002B01D000F048F99F
:10068C0000BF80BDB000002000540040A0860100D7
:10069C0080B586B000AF07F1080300221A605A60DB
:1006AC009A60DA603B4600221A605A601D4B4FF08C
:1006BC0080421A601B4B41F63F725A60194B002264
:1006CC009A60184B0922DA60164B00221A61154BFE
:1006DC0000229A61134801F097FE0346002B01D0CB
:1006EC0000F016F94FF48053BB6007F1080319466C
:1006FC000C4802F01BF80346002B01D000F008F95F
:10070C0000233B6000237B603B461946054802F002
:10071C00FDF90346002B01D000F0FAF800BF1837A2
:10072C00BD4680BD0401002080B500AF114B124ABC
:10073C001A60104B4FF4E1325A600E4B00229A6053
:10074C000C4B0022DA600B4B00221A61094B0C2275
:10075C005A61084B00229A61064B0022DA61054867
:10076C0002F044FA0346002B01D000F0D1F800BF90
:10077C0080BD00BF4C0100200044004080B588B013
:10078C0000AF07F1100300221A605A609A60DA6019
:10079C00554B9B69544A43F010039361524B9B6930
:1007AC0003F01003FB60FB684F4B9B694E4A43F010
:1007BC00200393614C4B9B6903F02003BB60BB6827
:1007CC00494B9B69484A43F004039361464B9B6930
:1007DC0003F004037B607B68434B9B69424A43F004
:1007EC0008039361404B9B6903F008033B603B6833
:1007FC00002220213D4800F00AFD00224FF48761C1
:10080C003B4800F004FD00224FF40071394800F021
:10081C00FEFC4FF400533B61374B7B610123BB6102
:10082C0007F110031946334800F056FB20233B61B7
:10083C0001237B610023BB610223FB6107F11003E1
:10084C0019462A4800F048FB4FF487633B610123AB
:10085C007B610023BB610223FB6107F11003194686
:10086C00234800F039FB80233B6100237B6100238C
:10087C00BB6107F1100319461E4800F02DFB4FF425
:10088C0000733B6101237B610023BB610223FB618D
:10089C0007F110031946174800F01EFB4FF4407384
:1008AC003B6100237B610023BB6107F110031946F8
:1008BC000E4800F011FB40233B6100237B610023B9
:1008CC00BB6107F110031946094800F005FB002233
:1008DC000021282000F0C9FA282000F0E2FA00BF1D
:1008EC002037BD4680BD00BF00100240000801400B
:1008FC00000C0140001001400000111080B582B0C6
:10090C0000AF7860FFF756FC00BF0837BD4680BDCE
:10091C0080B400AF72B600BFFEE7000080B485B0B3
:10092C0000AF154B9B69144A43F001039361124BC2
:10093C009B6903F00103BB60BB680F4BDB690E4A7C
:10094C0043F08053D3610C4BDB6903F080537B6025
:10095C007B680A4B5B68FB60FB6823F0E063FB6021
:10096C00FB6843F00073FB60044AFB68536000BFF4
:10097C001437BD4680BC7047001002400000014097
:10098C0080B58AB000AF786007F1140300221A60BA
:10099C005A609A60DA607B681B681D4A934232D1B8
:1009AC001C4B9B691B4A43F008039361194B9B69D1
:1009BC0003F008033B613B694FF440737B611223E6
:1009CC00BB6103233B6207F114031946124800F084
:1009DC0083FA124B5B687B627B6A43F0E0637B6259
:1009EC007B6A43F002037B620C4A7B6A5360094BBF
:1009FC00DB69084A43F40013D361064BDB6903F44B
:100A0C000013FB60FB6800BF2837BD4680BD00BFEC
:100A1C000054004000100240000C01400000014056
:100A2C0080B584B000AF78607B681B68B3F1804FF1
:100A3C0013D10C4BDB690B4A43F00103D361094B17
:100A4C00DB6903F00103FB60FB68002200211C2022
:100A5C0000F00BFA1C2000F024FA00BF1037BD4642
:100A6C0080BD00BF0010024080B588B000AF786038
:100A7C0007F1100300221A605A609A60DA607B68F2
:100A8C001B68154A934223D1144BDB69134A43F478
:100A9C000033D361114BDB6903F40033FB60FB685B
:100AAC000E4B9B690D4A43F0040393610B4B9B69FE
:100ABC0003F00403BB60BB680C233B6102237B6126
:100ACC000223FB6107F110031946054800F004FAF4
:100ADC0000BF2037BD4680BD0044004000100240DE
:100AEC000008014080B400AFFEE780B400AFFEE721
:100AFC0080B400AFFEE780B400AFFEE780B400AF77
:100B0C00FEE780B400AF00BFBD4680BC704780B428
:100B1C0000AF00BFBD4680BC704780B400AF00BFC3
:100B2C00BD4680BC704780B500AF00F087F800BFB1
:100B3C0080BD000080B500AF024801F007FD00BF8A
:100B4C0080BD00BF0401002080B500AF4FF4005001
:100B5C0000F08EFB00BF80BD80B400AF00BFBD466F
:100B6C0080BC7047FFF7F8FF0B480C490C4A002378
:100B7C0002E0D458C4500433C4188C42F9D3094A47
:100B8C00094C002301E013600432A242FBD302F0B3
:100B9C000BF9FFF7D3FC7047000000202400002065
:100BAC00742E00082400002098010020FEE70000AD
:100BBC0080B500AF084B1B68074A43F01003136065
:100BCC00032000F047F9002000F008F8FFF7A6FE1C
:100BDC000023184680BD00BF0020024080B582B0C3
:100BEC0000AF7860124B1A68124B1B7819464FF401
:100BFC007A73B3FBF1F3B2FBF3F3184600F05FF931
:100C0C000346002B01D001230EE07B680F2B0AD882
:100C1C00002279684FF0FF3000F027F9064A7B6814
:100C2C001360002300E0012318460837BD4680BD41
:100C3C0018000020200000201C00002080B400AF11
:100C4C00054B1B781A46054B1B681344034A13606B
:100C5C0000BFBD4680BC70472000002094010020DE
:100C6C0080B400AF024B1B681846BD4680BC704771
:100C7C009401002080B584B000AF7860FFF7F0FFDE
:100C8C00B8607B68FB60FB68B3F1FF3F05D00A4B93
:100C9C001B781A46FB681344FB6000BFFFF7E0FFAC
:100CAC000246BB68D31AFA689A42F7D800BF00BF55
:100CBC001037BD4680BD00BF2000002080B485B039
:100CCC0000AF78607B6803F00703FB600C4BDB68BC
:100CDC00BB60BA684FF6FF031340BB60FB681A0297
:100CEC00BB68134343F0BF6343F40033BB60044A57
:100CFC00BB68D36000BF1437BD4680BC704700BFD3
:100D0C0000ED00E080B400AF044BDB681B0A03F07D
:100D1C0007031846BD4680BC704700BF00ED00E0DD
:100D2C0080B483B000AF0346FB7197F90730002BFA
:100D3C000BDBFB7903F01F02064997F907305B09BF
:100D4C00012000FA02F241F8232000BF0C37BD4607
:100D5C0080BC704700E100E080B483B000AF034674
:100D6C003960FB7197F90730002B0ADB3B68DAB26C
:100D7C000C4997F907301201D2B20B4483F80023C7
:100D8C000AE03B68DAB20849FB7903F00F03043B35
:100D9C001201D2B20B441A7600BF0C37BD4680BC90
:100DAC00704700BF00E100E000ED00E080B489B0C6
:100DBC0000AFF860B9607A60FB6803F00703FB6171
:100DCC00FB69C3F10703042B28BF0423BB61FB6938
:100DDC000433062B02D9FB69033B00E000237B6143
:100DEC004FF0FF32BB6902FA03F3DA43BB681A40D7
:100DFC007B699A404FF0FF317B6901FA03F3D943C9
:100E0C007B680B40134318462437BD4680BC7047A3
:100E1C0080B582B000AF78607B68013BB3F1807F16
:100E2C0001D301230FE00A4A7B68013B53600F2179
:100E3C004FF0FF30FFF790FF054B00229A60044BF8
:100E4C0007221A60002318460837BD4680BD00BF34
:100E5C0010E000E080B582B000AF78607868FFF7F2
:100E6C002DFF00BF0837BD4680BD80B586B000AFF2
:100E7C000346B9607A60FB7300237B61FFF742FF86
:100E8C0078617A68B9687869FFF790FF024697F93C
:100E9C000F3011461846FFF75FFF00BF1837BD46ED
:100EAC0080BD80B582B000AF0346FB7197F9073067
:100EBC001846FFF735FF00BF0837BD4680BD80B52B
:100ECC0082B000AF78607868FFF7A2FF034618463F
:100EDC000837BD4680BD000080B48BB000AF786091
:100EEC00396000237B6200233B6269E101227B6A4B
:100EFC0002FA03F3FB613B681B68FA691340BB61A0
:100F0C00BA69FB699A4240F058813B685B689A4A1F
:100F1C0093425ED0984A934275D8984A934258D0DF
:100F2C00964A93426FD8964A934252D0944A93422F
:100F3C0069D8944A93424CD0924A934263D8924ACD
:100F4C00934246D0904A93425DD8122B2AD8122B4A
:100F5C0059D801A252F823F0DF0F0008B90F00088E
:100F6C00CB0F00080D100008131000081310000818
:100F7C0013100008131000081310000813100008B9
:100F8C0013100008131000081310000813100008A9
:100F9C00131000081310000813100008C10F0008EC
:100FAC00D50F0008794A934213D02CE03B68DB68DC
:100FBC003B6229E03B68DB6804333B6224E03B681E
:100FCC00DB6808333B621FE03B68DB680C333B6239
:100FDC001AE03B689B68002B02D104233B6213E0B0
:100FEC003B689B68012B05D108233B627B68FA693F
:100FFC001A6109E008233B627B68FA695A6103E0D5
:10100C0000233B6200E000BFBB69FF2B01D87B686B
:10101C0001E07B6804337B61BB69FF2B02D87B6AE0
:10102C009B0002E07B6A083B9B003B617B691A6872
:10103C000F213B6901FA03F3DB431A40396A3B6920
:10104C0001FA03F31A437B691A603B685B6803F08F
:10105C008053002B00F0B1804D4B9B694C4A43F000
:10106C00010393614A4B9B6903F00103BB60BB68AE
:10107C00484A7B6A9B08023352F82330FB607B6A38
:10108C0003F003039B000F2202FA03F3DB43FA681D
:10109C001340FB607B68404A934213D07B683F4A05
:1010AC0093420DD07B683E4A934207D07B683D4A01
:1010BC00934201D1032306E0042304E0022302E05F
:1010CC00012300E000237A6A02F0030292009340AD
:1010DC00FA681343FB602F497B6A9B080233FA685A
:1010EC0041F823203B685B6803F48013002B06D087
:1010FC002D4B9A682C49BB6913438B6006E02A4B35
:10110C009A68BB69DB43284913408B603B685B687A
:10111C0003F40013002B06D0234BDA682249BB6979
:10112C001343CB6006E0204BDA68BB69DB431E49F6
:10113C001340CB603B685B6803F40033002B06D094
:10114C00194B5A681849BB6913434B6006E0164BA0
:10115C005A68BB69DB43144913404B603B685B68BE
:10116C0003F48033002B21D00F4B1A680E49BB6956
:10117C0013430B6021E000BF00003210000031105F
:10118C0000002210000021100000121000001110AD
:10119C00001002400000014000080140000C01401A
:1011AC000010014000140140000401400B4B1A6870
:1011BC00BB69DB43094913400B607B6A01337B62DB
:1011CC003B681A687B6A22FA03F3002B7FF48EAE1D
:1011DC0000BF00BF2C37BD4680BC704700040140E7
:1011EC0080B485B000AF78600B467B807B689A68D2
:1011FC007B881340002B02D00123FB7301E00023FA
:10120C00FB73FB7B18461437BD4680BC704780B41B
:10121C0083B000AF78600B467B8013467B707B7885
:10122C00002B03D07A887B681A6103E07B881A0450
:10123C007B681A6100BF0C37BD4680BC704780B418
:10124C0085B000AF78600B467B807B68DB68FB6009
:10125C007A88FB6813401A04FB68D9437B880B40DF
:10126C001A437B681A6100BF1437BD4680BC7047B7
:10127C0080B582B000AF0346FB80084B5A69FB88EF
:10128C001340002B06D0054AFB885361FB88184697
:10129C0000F006F800BF0837BD4680BD00040140D1
:1012AC0080B483B000AF0346FB8000BF0C37BD4653
:1012BC0080BC704780B584B000AF78607B68002B31
:1012CC0001D101232BE17B6893F83D30DBB2002B7D
:1012DC0006D17B68002283F83C207868FFF750FB2E
:1012EC007B68242283F83D207B681B681A687B6826
:1012FC001B6822F001021A607B681B681A687B6805
:10130C001B6842F400421A607B681B681A687B6891
:10131C001B6822F400421A6001F030F8F8607B6818
:10132C005B68814A934207D8FB68804A934294BF1A
:10133C0001230023DBB206E0FB687D4A934294BF95
:10134C0001230023DBB2002B01D00123E7E0FB6873
:10135C00784AA2FB03239B0CBB607B681B685B6811
:10136C0023F03F017B681B68BA680A435A607B68AC
:10137C001B681B6A23F03F017B685B686A4A9342D7
:10138C0002D8BB68013309E0BB684FF4967202FBCC
:10139C0003F3694AA2FB03239B0901337A681268A1
:1013AC000B4313627B681B68DB6923F44F4222F00A
:1013BC00FF027B685B685C498B4219D8FB68591E3D
:1013CC007B685B685B00B1FBF3F3591C40F6FC7364
:1013DC000B40002B0AD0FB68591E7B685B685B00D6
:1013EC00B1FBF3F30133C3F30B0351E004234FE0E0
:1013FC007B689B68002B11D1FB68581E7B68596871
:10140C000B465B000B44B0FBF3F30133C3F30B034C
:10141C00002B0CBF01230023DBB212E0FB68581E2B
:10142C007B6859680B469B000B4499000B44B0FB3E
:10143C00F3F30133C3F30B03002B0CBF0123002385
:10144C00DBB2002B01D0012322E07B689B68002BD0
:10145C000ED1FB68581E7B6859680B465B000B4429
:10146C00B0FBF3F30133C3F30B0343F400430FE07E
:10147C00FB68581E7B6859680B469B000B4499000F
:10148C000B44B0FBF3F30133C3F30B0343F44043BE
:10149C00796809681343CB617B681B681B6823F070
:1014AC00C0017B68DA697B681B6A1A437B681B681E
:1014BC000A431A607B681B689B6823F4034323F080
:1014CC00FF037A6811697A68D26811437A681268E6
:1014DC000B4393607B681B68DB6823F0FF017B6820
:1014EC005A697B689B691A437B681B680A43DA60FC
:1014FC007B681B681A687B681B6842F001021A60E3
:10150C007B6800221A647B68202283F83D207B686C
:10151C0000221A637B68002283F83E2000231846C1
:10152C001037BD4680BD00BFA08601007F841E0021
:10153C00FF083D0083DE1B43D34D621080B588B09D
:10154C0002AFF8607A601A460B467B8113463B81EA
:10155C00FFF786FB7861FB6893F83D30DBB2202BFC
:10156C0040F0E0807B690093192301227049F868F0
:10157C0000F064F90346002B01D00223D3E0FB6892
:10158C0093F83C30012B01D10223CCE0FB68012203
:10159C0083F83C20FB681B681B6803F00103012BDC
:1015AC0007D0FB681B681A68FB681B6842F00102D5
:1015BC001A60FB681B681A68FB681B6822F40062DF
:1015CC001A60FB68212283F83D20FB68102283F807
:1015DC003E20FB6800221A64FB687A685A62FB683A
:1015EC003A895A85FB685B8D9AB2FB681A85FB6851
:1015FC00504ADA6279897B693A6AF86800F09CF89B
:10160C000346002B01D001238DE000233B61FB68D6
:10161C001B685B693B61FB681B689B693B613B69B1
:10162C0066E07A69396AF86800F022FA0346002B02
:10163C000DD0FB681B6C042B07D1FB681B681A6868
:10164C00FB681B6842F400721A6001236BE0FB68B4
:10165C005B6A1A78FB681B681A61FB685B6A5A1C28
:10166C00FB685A62FB685B8D9BB2013B9AB2FB68CC
:10167C005A85FB681B8D013B9AB2FB681A85FB6887
:10168C001B685B6903F00403042B1BD1FB681B8DE7
:10169C00002B17D0FB685B6A1A78FB681B681A6111
:1016AC00FB685B6A5A1CFB685A62FB685B8D9BB2D9
:1016BC00013B9AB2FB685A85FB681B8D013B9AB2C1
:1016CC00FB681A857A69396AF86800F019FA0346DA
:1016DC00002B0DD0FB681B6C042B07D1FB681B681F
:1016EC001A68FB681B6842F400721A6001231AE046
:1016FC00FB681B8D002B94D1FB681B681A68FB6878
:10170C001B6842F400721A60FB68202283F83D20AB
:10171C00FB68002283F83E20FB68002283F83C2003
:10172C00002300E0022318461837BD4680BD00BFD9
:10173C00020010000000FFFF80B588B002AFF86017
:10174C007A603B600B467B81FB68DB6A7B617B6963
:10175C00082B06D07B69012B03D07B6913F5803FE6
:10176C0008D1FB681B681A68FB681B6842F480721E
:10177C001A600BE0FB681B6B122B07D1FB681B6814
:10178C001A68FB681B6842F480721A603B6800930D
:10179C007B6800224FF00111F86800F04FF8034607
:1017AC00002B0DD0FB681B681B6803F48073B3F52A
:1017BC00807F03D1FB684FF400721A64032335E079
:1017CC00FB681B69B3F5804F08D17B89DBB21A46E5
:1017DC00FB681B6802F0FE021A611BE07B89DB11BF
:1017EC00DBB203F00603DBB263F00F03DAB2FB6883
:1017FC001B681A613B687A680E49F86800F098F823
:10180C000346002B01D0012310E07B89DAB2FB6880
:10181C001B681A613B687A680749F86800F088F819
:10182C000346002B01D0012300E000231846183793
:10183C00BD4680BD080001000200010080B584B0E7
:10184C0000AFF860B9603B601346FB7148E03B6841
:10185C00B3F1FF3F44D0FFF703FA0246BB69D31A3A
:10186C003A689A4202D33B68002B39D1BB681B0CF7
:10187C00DBB2012B0DD1FB681B685B69DA43BB68DB
:10188C0013409BB2002B0CBF01230023DBB21A4682
:10189C000CE0FB681B689B69DA43BB6813409BB286
:1018AC00002B0CBF01230023DBB21A46FB799A42B2
:1018BC0016D1FB6800221A63FB68202283F83D20B6
:1018CC00FB68002283F83E20FB681B6C43F020026F
:1018DC00FB681A64FB68002283F83C20012323E098
:1018EC00BB681B0CDBB2012B0DD1FB681B685B6961
:1018FC00DA43BB6813409BB2002B0CBF01230023BF
:10190C00DBB21A460CE0FB681B689B69DA43BB68C8
:10191C0013409BB2002B0CBF01230023DBB21A46F1
:10192C00FB799A4293D0002318461037BD4680BDF0
:10193C0080B584B000AFF860B9607A603B6071E04C
:10194C00FB681B685B6903F48063B3F5806F23D17C
:10195C00FB681B681A68FB681B6842F400721A600B
:10196C00FB681B686FF480625A61FB6800221A6383
:10197C00FB68202283F83D20FB68002283F83E2080
:10198C00FB681B6C43F00402FB681A64FB680022C2
:10199C0083F83C20012367E07B68B3F1FF3F41D023
:1019AC00FFF75EF902463B68D31A7A689A4202D373
:1019BC007B68002B36D1BB681B0CDBB2012B0CD126
:1019CC00FB681B685B69DA43BB6813409BB2002B56
:1019DC0014BF01230023DBB20BE0FB681B689B697F
:1019EC00DA43BB6813409BB2002B14BF01230023C6
:1019FC00DBB2002B16D0FB6800221A63FB68202296
:101A0C0083F83D20FB68002283F83E20FB681B6CAA
:101A1C0043F02002FB681A64FB68002283F83C2028
:101A2C00012321E0BB681B0CDBB2012B0CD1FB6842
:101A3C001B685B69DA43BB6813409BB2002B14BF75
:101A4C0001230023DBB20BE0FB681B689B69DA43C4
:101A5C00BB6813409BB2002B14BF01230023DBB2E5
:101A6C00002B7FF46DAF002318461037BD4680BDA8
:101A7C0080B584B000AFF860B9607A6034E0F86883
:101A8C0000F086F80346002B01D0012334E0BB683C
:101A9C00B3F1FF3F28D0FFF7E3F802467B68D31A77
:101AAC00BA689A4202D3BB68002B1DD1FB681B6835
:101ABC005B6903F08003802B16D0FB6800221A634D
:101ACC00FB68202283F83D20FB68002283F83E202F
:101ADC00FB681B6C43F02002FB681A64FB68002255
:101AEC0083F83C20012307E0FB681B685B6903F06B
:101AFC008003802BC3D1002318461037BD4680BD10
:101B0C0080B584B000AFF860B9607A6034E0F868F2
:101B1C0000F03EF80346002B01D0012334E0BB68F3
:101B2C00B3F1FF3F28D0FFF79BF802467B68D31A2E
:101B3C00BA689A4202D3BB68002B1DD1FB681B68A4
:101B4C005B6903F00403042B16D0FB6800221A63B4
:101B5C00FB68202283F83D20FB68002283F83E209E
:101B6C00FB681B6C43F02002FB681A64FB680022C4
:101B7C0083F83C20012307E0FB681B685B6903F0DA
:101B8C000403042BC3D1002318461037BD4680BD77
:101B9C0080B483B000AF78607B681B685B6903F42A
:101BAC008063B3F5806F1BD17B681B686FF4806218
:101BBC005A617B6800221A637B68202283F83D20DF
:101BCC007B68002283F83E207B681B6C43F0040288
:101BDC007B681A647B68002283F83C20012300E0B8
:101BEC00002318460C37BD4680BC704780B586B0C4
:101BFC0000AF78607B68002B01D101236CE27B681D
:101C0C001B6803F00103002B00F08780924B5B688C
:101C1C0003F00C03042B0CD08F4B5B6803F00C030C
:101C2C00082B12D18C4B5B6803F48033B3F5803FE7
:101C3C000BD1894B1B6803F40033002B6CD07B68F1
:101C4C005B68002B68D1012346E27B685B68B3F5C7
:101C5C00803F06D1804B1B687F4A43F4803313606E
:101C6C002EE07B685B68002B0CD17B4B1B687A4A9F
:101C7C0023F480331360784B1B68774A23F480235A
:101C8C0013601DE07B685B68B3F5A02F0CD1724B21
:101C9C001B68714A43F4802313606F4B1B686E4AB8
:101CAC0043F4803313600BE06B4B1B686A4A23F4DC
:101CBC0080331360684B1B68674A23F480231360DE
:101CCC007B685B68002B13D0FEF7CAFF386108E015
:101CDC00FEF7C6FF02463B69D31A642B01D90323D6
:101CEC00FAE15D4B1B6803F40033002BF0D014E0D9
:101CFC00FEF7B6FF386108E0FEF7B2FF02463B691B
:101D0C00D31A642B01D90323E6E1534B1B6803F46C
:101D1C000033002BF0D100E000BF7B681B6803F0A0
:101D2C000203002B63D04C4B5B6803F00C03002BBD
:101D3C000BD0494B5B6803F00C03082B1CD1464BB2
:101D4C005B6803F48033002B16D1434B1B6803F004
:101D5C000203002B05D07B681B69012B01D00123EA
:101D6C00BAE13D4B1B6823F0F8027B685B69DB0032
:101D7C00394913430B603AE07B681B69002B20D078
:101D8C00364B01221A60FEF76BFF386108E0FEF754
:101D9C0067FF02463B69D31A022B01D903239BE14F
:101DAC002D4B1B6803F00203002BF0D02A4B1B6851
:101DBC0023F0F8027B685B69DB00274913430B6057
:101DCC0015E0264B00221A60FEF74AFF386108E046
:101DDC00FEF746FF02463B69D31A022B01D90323B7
:101DEC007AE11D4B1B6803F00203002BF0D17B68DA
:101DFC001B6803F00803002B3AD07B689B69002B0F
:101E0C0019D0174B01221A60FEF72AFF386108E03F
:101E1C00FEF726FF02463B69D31A022B01D9032396
:101E2C005AE10D4B5B6A03F00203002BF0D001204A
:101E3C0000F0CCFA1CE00A4B00221A60FEF710FFEF
:101E4C0038610FE0FEF70CFF02463B69D31A022BF8
:101E5C0008D9032340E100BF0010024000004242B9
:101E6C00800442429E4B5B6A03F00203002BE9D1D3
:101E7C007B681B6803F00403002B00F0A680002392
:101E8C00FB75974BDB6903F08053002B0DD1944B02
:101E9C00DB69934A43F08053D361914BDB6903F0C8
:101EAC008053BB60BB680123FB758E4B1B6803F42E
:101EBC008073002B18D18B4B1B688A4A43F48073B8
:101ECC001360FEF7CDFE386108E0FEF7C9FE02464E
:101EDC003B69D31A642B01D90323FDE0814B1B68AA
:101EEC0003F48073002BF0D07B68DB68012B06D1E8
:101EFC007B4B1B6A7A4A43F0010313622DE07B682B
:101F0C00DB68002B0CD1764B1B6A754A23F001035E
:101F1C001362734B1B6A724A23F0040313621CE0B6
:101F2C007B68DB68052B0CD16D4B1B6A6C4A43F04C
:101F3C00040313626A4B1B6A694A43F00103136280
:101F4C000BE0674B1B6A664A23F001031362644B78
:101F5C001B6A634A23F0040313627B68DB68002B63
:101F6C0015D0FEF77DFE38610AE0FEF779FE0246D9
:101F7C003B69D31A41F28832934201D90323ABE077
:101F8C00574B1B6A03F00203002BEED014E0FEF754
:101F9C0067FE38610AE0FEF763FE02463B69D31A1E
:101FAC0041F28832934201D9032395E04C4B1B6AD2
:101FBC0003F00203002BEED1FB7D012B05D1484B26
:101FCC00DB69474A23F08053D3617B68DB69002BC4
:101FDC0000F08180424B5B6803F00C03082B61D04E
:101FEC007B68DB69022B46D13F4B00221A60FEF75F
:101FFC0037FE386108E0FEF733FE02463B69D31A20
:10200C00022B01D9032367E0354B1B6803F00073E7
:10201C00002BF0D17B681B6AB3F5803F08D1304BA5
:10202C005B6823F400327B689B682D4913434B603B
:10203C002B4B5B6823F474127B68196A7B685B6AB0
:10204C000B43274913434B60274B01221A60FEF7C1
:10205C0007FE386108E0FEF703FE02463B69D31A1F
:10206C00022B01D9032337E01D4B1B6803F00073CF
:10207C00002BF0D02FE01C4B00221A60FEF7F0FD75
:10208C00386108E0FEF7ECFD02463B69D31A022BDF
:10209C0001D9032320E0124B1B6803F00073002BC3
:1020AC00F0D118E07B68DB69012B01D1012313E02F
:1020BC000B4B5B68FB60FB6803F480327B681B6A2C
:1020CC009A4206D1FB6803F470127B685B6A9A42F1
:1020DC0001D0012300E0002318461837BD4680BD0F
:1020EC0000100240007000406000424280B584B095
:1020FC0000AF786039607B68002B01D10123D0E000
:10210C006A4B1B6803F007033A689A4210D9674B75
:10211C001B6823F0070265493B6813430B60634B54
:10212C001B6803F007033A689A4201D00123B8E018
:10213C007B681B6803F00203002B20D07B681B68B4
:10214C0003F00403002B05D0594B5B68584A43F449
:10215C00E06353607B681B6803F00803002B05D019
:10216C00534B5B68524A43F460535360504B5B686B
:10217C0023F0F0027B689B684D4913434B607B68EE
:10218C001B6803F00103002B40D07B685B68012BBC
:10219C0007D1474B1B6803F40033002B15D10123E7
:1021AC007FE07B685B68022B07D1414B1B6803F017
:1021BC000073002B09D1012373E03D4B1B6803F026
:1021CC000203002B01D101236BE0394B5B6823F038
:1021DC0003027B685B68364913434B60FEF740FD96
:1021EC00F8600AE0FEF73CFD0246FB68D31A41F2A8
:1021FC008832934201D9032353E02D4B5B6803F0E3
:10220C000C027B685B689B009A42EBD1274B1B68E6
:10221C0003F007033A689A4210D2244B1B6823F050
:10222C00070222493B6813430B60204B1B6803F0E9
:10223C0007033A689A4201D0012332E07B681B689D
:10224C0003F00403002B08D0194B5B6823F4E06205
:10225C007B68DB68164913434B607B681B6803F093
:10226C000803002B09D0124B5B6823F460527B6887
:10227C001B69DB000E4913434B6000F021F802464A
:10228C000B4B5B681B0903F00F030A49CB5C22FA6A
:10229C0003F3094A1360094B1B681846FEF79EFCB2
:1022AC00002318461037BD4680BD00BF00200240F9
:1022BC0000100240402E0008180000201C000020D6
:1022CC0080B487B000AF0023FB600023BB60002309
:1022DC007B6100237B6000233B611E4B5B68FB60D2
:1022EC00FB6803F00C03042B02D0082B03D027E06F
:1022FC00194B3B6127E0FB689B0C03F00F03174A5B
:10230C00D35C7B60FB6803F48033002B10D0114B43
:10231C005B685B0C03F00103114AD35CBB607B6808
:10232C000D4A02FB03F2BB68B2FBF3F37B6104E0E2
:10233C007B680C4A02FB03F37B617B693B6102E027
:10234C00054B3B6100BF3B6918461C37BD4680BC42
:10235C00704700BF0010024000127A00582E00088F
:10236C00682E000800093D0080B400AF024B1B68CA
:10237C001846BD4680BC70471800002080B500AFE1
:10238C00FFF7F2FF0246054B5B681B0A03F00703DD
:10239C000349CB5C22FA03F3184680BD00100240BF
:1023AC00502E000880B500AFFFF7DEFF0246054B4C
:1023BC005B68DB0A03F007030349CB5C22FA03F3E7
:1023CC00184680BD00100240502E000880B485B025
:1023DC0000AF78600A4B1B680A4AA2FB03235B0A16
:1023EC007A6802FB03F3FB6000BFFB685A1EFA60BD
:1023FC00002BF9D100BF00BF1437BD4680BC70471D
:10240C0018000020D34D621080B582B000AF786008
:10241C007B68002B01D1012341E07B6893F83D30B0
:10242C00DBB2002B06D17B68002283F83C20786855
:10243C00FEF7F6FA7B68022283F83D207B681A6867
:10244C007B6804331946104600F05CFA7B68012265
:10245C0083F846207B68012283F83E207B680122AA
:10246C0083F83F207B68012283F840207B6801229F
:10247C0083F841207B68012283F842207B6801228B
:10248C0083F843207B68012283F844207B68012277
:10249C0083F845207B68012283F83D2000231846F1
:1024AC000837BD4680BD000080B485B000AF7860B1
:1024BC007B6893F83D30DBB2012B01D001233AE06D
:1024CC007B68022283F83D207B681B68DA687B6896
:1024DC001B6842F00102DA607B681B68184A934261
:1024EC000ED07B681B68B3F1804F09D07B681B68EA
:1024FC00144A934204D07B681B68134A934211D14F
:10250C007B681B689B6803F00703FB60FB68062B6A
:10251C0010D07B681B681A687B681B6842F001024C
:10252C001A6007E07B681B681A687B681B6842F0BE
:10253C0001021A60002318461437BD4680BC704750
:10254C00002C0140000400400008004080B584B01D
:10255C0000AF78607B681B68DB68FB607B681B687E
:10256C001B69BB60BB6803F00203002B20D0FB6827
:10257C0003F00203002B1BD07B681B686FF0020278
:10258C001A617B6801221A777B681B689B6903F0D0
:10259C000303002B03D0786800F098F905E0786805
:1025AC0000F08BF9786800F09AF97B6800221A77B2
:1025BC00BB6803F00403002B20D0FB6803F004037A
:1025CC00002B1BD07B681B686FF004021A617B68C0
:1025DC0002221A777B681B689B6903F44073002BFB
:1025EC0003D0786800F072F905E0786800F065F9BE
:1025FC00786800F074F97B6800221A77BB6803F0E6
:10260C000803002B20D0FB6803F00803002B1BD021
:10261C007B681B686FF008021A617B6804221A77CA
:10262C007B681B68DB6903F00303002B03D078681D
:10263C0000F04CF905E0786800F03FF9786800F09C
:10264C004EF97B6800221A77BB6803F01003002B4D
:10265C0020D0FB6803F01003002B1BD07B681B6899
:10266C006FF010021A617B6808221A777B681B686E
:10267C00DB6903F44073002B03D0786800F026F973
:10268C0005E0786800F019F9786800F028F97B68A3
:10269C0000221A77BB6803F00103002B0CD0FB68F7
:1026AC0003F00103002B07D07B681B686FF001025D
:1026BC001A617868FEF722F9BB6803F08003002BDF
:1026CC000CD0FB6803F08003002B07D07B681B68E1
:1026DC006FF080021A61786800F07FFABB6803F033
:1026EC004003002B0CD0FB6803F04003002B07D0F9
:1026FC007B681B686FF040021A61786800F0F8F88C
:10270C00BB6803F02003002B0CD0FB6803F0200304
:10271C00002B07D07B681B686FF020021A61786869
:10272C0000F052FA00BF1037BD4680BD80B584B0B2
:10273C0000AF786039600023FB737B6893F83C3002
:10274C00012B01D10223B4E07B68012283F83C20E9
:10275C007B68022283F83D207B681B689B68BB600A
:10276C00BB6823F07703BB60BB6823F47F43BB607B
:10277C007B681B68BA689A603B681B68B3F5005F9E
:10278C003ED0B3F5005F00F28780B3F5805F00F0B8
:10279C008680B3F5805F7FD8702B1AD0702B7BD8D6
:1027AC00602B50D0602B77D8502B3CD0502B73D84B
:1027BC00402B58D0402B6FD8302B64D0302B6BD89B
:1027CC00202B60D0202B67D8002B5CD0102B5AD03C
:1027DC0062E07B6818683B6899683B685A683B689C
:1027EC00DB6800F074F97B681B689B68BB60BB6896
:1027FC0043F07703BB607B681B68BA689A604FE054
:10280C007B6818683B6899683B685A683B68DB686A
:10281C0000F05DF97B681B689A687B681B6842F462
:10282C0080429A603CE07B6818683B6859683B685A
:10283C00DB681A4600F0D4F87B681B6850211846F8
:10284C0000F02BF92CE07B6818683B6859683B68F2
:10285C00DB681A4600F0F2F87B681B6860211846AA
:10286C0000F01BF91CE07B6818683B6859683B68F2
:10287C00DB681A4600F0B4F87B681B6840211846E8
:10288C0000F00BF90CE07B681A683B681B68194672
:10289C00104600F002F903E00123FB7300E000BFD7
:1028AC007B68012283F83D207B68002283F83C2062
:1028BC00FB7B18461037BD4680BD80B483B000AF9B
:1028CC00786000BF0C37BD4680BC704780B483B0C5
:1028DC0000AF786000BF0C37BD4680BC704780B439
:1028EC0083B000AF786000BF0C37BD4680BC70472A
:1028FC0080B483B000AF786000BF0C37BD4680BC9D
:10290C007047000080B485B000AF786039607B6898
:10291C001B68FB607B682F4A93420BD07B68B3F13A
:10292C00804F07D07B682C4A934203D07B682B4A9C
:10293C00934208D1FB6823F07003FB603B685B6833
:10294C00FA681343FB607B68224A93420BD07B6886
:10295C00B3F1804F07D07B681F4A934203D07B684A
:10296C001E4A934208D1FB6823F44073FB603B681A
:10297C00DB68FA681343FB60FB6823F080023B685A
:10298C005B691343FB607B68FA681A603B689A6862
:10299C007B68DA623B681A687B689A627B680D4ACE
:1029AC00934203D13B681A697B681A637B680122E6
:1029BC005A617B681B6903F00103002B05D07B680F
:1029CC001B6923F001027B681A6100BF1437BD46F6
:1029DC0080BC7047002C01400004004000080040FF
:1029EC0080B487B000AFF860B9607A60FB681B6A8E
:1029FC007B61FB681B6A23F00102FB681A62FB68AF
:102A0C009B693B613B6923F0F0033B617B681B01D5
:102A1C003A6913433B617B6923F00A037B617A6952
:102A2C00BB6813437B61FB683A699A61FB687A69FE
:102A3C001A6200BF1C37BD4680BC704780B487B09B
:102A4C0000AFF860B9607A60FB681B6A7B61FB6859
:102A5C001B6A23F01002FB681A62FB689B693B61DE
:102A6C003B6923F470433B617B681B033A69134356
:102A7C003B617B6923F0A0037B61BB681B017A6916
:102A8C0013437B61FB683A699A61FB687A691A6245
:102A9C0000BF1C37BD4680BC704780B485B000AF0A
:102AAC00786039607B689B68FB60FB6823F070037F
:102ABC00FB603A68FB68134343F00703FB607B68D9
:102ACC00FA689A6000BF1437BD4680BC704780B46A
:102ADC0087B000AFF860B9607A603B60FB689B68B8
:102AEC007B617B6923F47F437B613B681A027B68C3
:102AFC001A43BB6813437A6913437B61FB687A6999
:102B0C009A6000BF1C37BD4680BC704780B485B04E
:102B1C0000AF786039607B6893F83C30012B01D1B1
:102B2C00022346E07B68012283F83C207B6802226A
:102B3C0083F83D207B681B685B68FB607B681B68C7
:102B4C009B68BB60FB6823F07003FB603B681B68F1
:102B5C00FA681343FB607B681B68FA685A607B68F1
:102B6C001B68164A93420ED07B681B68B3F1804FEA
:102B7C0009D07B681B68124A934204D07B681B689F
:102B8C00104A93420CD1BB6823F08003BB603B68B6
:102B9C005B68BA681343BB607B681B68BA689A6051
:102BAC007B68012283F83D207B68002283F83C205F
:102BBC00002318461437BD4680BC7047002C0140DA
:102BCC00000400400008004080B483B000AF78607F
:102BDC0000BF0C37BD4680BC704780B483B000AFDB
:102BEC00786000BF0C37BD4680BC704780B582B0A2
:102BFC0000AF78607B68002B01D1012342E07B6839
:102C0C0093F84130DBB2002B06D17B68002283F8AD
:102C1C0040207868FDF728FF7B68242283F8412048
:102C2C007B681B68DA687B681B6822F40052DA60E8
:102C3C00786800F02BF87B681B681A697B681B6846
:102C4C0022F490421A617B681B685A697B681B6886
:102C5C0022F02A025A617B681B68DA687B681B6861
:102C6C0042F40052DA607B6800225A647B682022AE
:102C7C0083F841207B68202283F842207B68002265
:102C8C005A63002318460837BD4680BD80B584B012
:102C9C0000AF78607B681B681B6923F440517B682C
:102CAC00DA687B681B680A431A617B689A687B68E0
:102CBC001B691A437B685B691343BB607B681B68A9
:102CCC00DB6823F4B05323F00C037A681268B968FC
:102CDC000B43D3607B681B685B6923F440717B6892
:102CEC009A697B681B680A435A617B681B682C4A8B
:102CFC00934203D1FFF756FBF86002E0FFF73EFB6F
:102D0C00F860FA6813469B0013449A001A447B68D7
:102D1C005B689B00B2FBF3F3224AA2FB03235B0923
:102D2C001901FA6813469B0013449A001A447B68F5
:102D3C005B689B00B2FBF3F21A4BA3FB02035B092B
:102D4C00642000FB03F3D31A1B013233154AA2FB98
:102D5C0003235B0903F0F0031944FA6813469B0044
:102D6C0013449A001A447B685B689B00B2FBF3F235
:102D7C000C4BA3FB02035B09642000FB03F3D31A87
:102D8C001B013233074AA2FB03235B0903F00F023A
:102D9C007B681B680A449A6000BF1037BD4680BD33
:102DAC00003801401F85EB5170B500260C4D0D4CC1
:102DBC00641BA410A64209D100F022F800260A4D8B
:102DCC000A4C641BA410A64205D170BD55F8043BF7
:102DDC0098470136EEE755F8043B98470136F2E781
:102DEC006C2E00086C2E00086C2E0008702E00084B
:102DFC0003460244934200D1704703F8011BF9E7E4
:102E0C00F8B500BFF8BC08BC9E467047F8B500BFCB
:082E1C00F8BC08BC9E4670479B
:102E240050686F6E67206465702074726169000079
:102E340053544D3332205265616479000000000020
:102E44000000000001020304060708090000000056
:102E54000102030402030405060708090A0B0C0D0A
:082E64000E0F10100102000026
:042E6C003101000828
:042E70000D01000848
:102E7400000801400008014000100140000C01401E
:102E8400000100028000400000127A0010000000DF
:042E94000100000039
:0400000508000B7173
:00000001FF
